:04000000180E0000D6
:04000100180F0000D4
:040002000C010211DA
:040003000C010310D9
:040004000C012000CB
:040005000C014000AA
:040006000C01600089
:040007000C070400DE
:040008000C010209DC
:040009000C0102885C
:04000A000C014000A5
:04000B000C012000C4
:04000C000C01600083
:04000D001C0F0000C4
:04000E001E0F0000C1
:04000F001C0F0000C2
:040010000C0D0000D3
:040011000C0D600072
:040012000C050400D5
:040013000C090000D4
:040014000F330000A6
:040015000F33600045
:040016000F3300089C
:040017000F3360083B
:040018001E2F000097
:040019001F3F000085
:04001A001E0F0000B5
:04001B000E030000D0
:04001C000E230000AF
:04001D000CCB000008
:04001E000CCB6000A7
:04001F000CCB0008FE
:040020000CCB60089D
:040021001CCF0000F0
:040022000C0B0008BB
:040023000C0F0000BE
:0400240000000000D8
:0400250000000000D7
:0400260000000000D6
:0400270000000000D5
:00000001FF
